{
  "contractName": "Voting",
  "abi": [
    {
      "inputs": [],
      "stateMutability": "nonpayable",
      "type": "constructor"
    },
    {
      "inputs": [],
      "name": "admin",
      "outputs": [
        {
          "internalType": "address",
          "name": "",
          "type": "address"
        }
      ],
      "stateMutability": "view",
      "type": "function",
      "constant": true
    },
    {
      "inputs": [
        {
          "internalType": "uint256",
          "name": "",
          "type": "uint256"
        }
      ],
      "name": "ballots",
      "outputs": [
        {
          "internalType": "uint256",
          "name": "id",
          "type": "uint256"
        },
        {
          "internalType": "string",
          "name": "name",
          "type": "string"
        },
        {
          "internalType": "uint256",
          "name": "end",
          "type": "uint256"
        }
      ],
      "stateMutability": "view",
      "type": "function",
      "constant": true
    },
    {
      "inputs": [],
      "name": "nextBallotId",
      "outputs": [
        {
          "internalType": "uint256",
          "name": "",
          "type": "uint256"
        }
      ],
      "stateMutability": "view",
      "type": "function",
      "constant": true
    },
    {
      "inputs": [
        {
          "internalType": "address",
          "name": "",
          "type": "address"
        }
      ],
      "name": "voters",
      "outputs": [
        {
          "internalType": "bool",
          "name": "",
          "type": "bool"
        }
      ],
      "stateMutability": "view",
      "type": "function",
      "constant": true
    },
    {
      "inputs": [
        {
          "internalType": "address",
          "name": "",
          "type": "address"
        },
        {
          "internalType": "uint256",
          "name": "",
          "type": "uint256"
        }
      ],
      "name": "votes",
      "outputs": [
        {
          "internalType": "bool",
          "name": "",
          "type": "bool"
        }
      ],
      "stateMutability": "view",
      "type": "function",
      "constant": true
    },
    {
      "inputs": [
        {
          "internalType": "uint256",
          "name": "id",
          "type": "uint256"
        }
      ],
      "name": "getBallot",
      "outputs": [
        {
          "components": [
            {
              "internalType": "uint256",
              "name": "id",
              "type": "uint256"
            },
            {
              "internalType": "string",
              "name": "name",
              "type": "string"
            },
            {
              "components": [
                {
                  "internalType": "uint256",
                  "name": "id",
                  "type": "uint256"
                },
                {
                  "internalType": "string",
                  "name": "name",
                  "type": "string"
                },
                {
                  "internalType": "uint256",
                  "name": "votes",
                  "type": "uint256"
                }
              ],
              "internalType": "struct Voting.Choice[]",
              "name": "choices",
              "type": "tuple[]"
            },
            {
              "internalType": "uint256",
              "name": "end",
              "type": "uint256"
            }
          ],
          "internalType": "struct Voting.Ballot",
          "name": "",
          "type": "tuple"
        }
      ],
      "stateMutability": "view",
      "type": "function",
      "constant": true
    },
    {
      "inputs": [
        {
          "internalType": "address[]",
          "name": "_voters",
          "type": "address[]"
        }
      ],
      "name": "addVoters",
      "outputs": [],
      "stateMutability": "nonpayable",
      "type": "function"
    },
    {
      "inputs": [
        {
          "internalType": "string",
          "name": "name",
          "type": "string"
        },
        {
          "internalType": "string[]",
          "name": "_choices",
          "type": "string[]"
        },
        {
          "internalType": "uint256",
          "name": "offset",
          "type": "uint256"
        }
      ],
      "name": "createBallot",
      "outputs": [],
      "stateMutability": "nonpayable",
      "type": "function"
    },
    {
      "inputs": [
        {
          "internalType": "uint256",
          "name": "ballotId",
          "type": "uint256"
        },
        {
          "internalType": "uint256",
          "name": "choiceId",
          "type": "uint256"
        }
      ],
      "name": "vote",
      "outputs": [],
      "stateMutability": "nonpayable",
      "type": "function"
    },
    {
      "inputs": [
        {
          "internalType": "uint256",
          "name": "ballotId",
          "type": "uint256"
        }
      ],
      "name": "results",
      "outputs": [
        {
          "components": [
            {
              "internalType": "uint256",
              "name": "id",
              "type": "uint256"
            },
            {
              "internalType": "string",
              "name": "name",
              "type": "string"
            },
            {
              "internalType": "uint256",
              "name": "votes",
              "type": "uint256"
            }
          ],
          "internalType": "struct Voting.Choice[]",
          "name": "",
          "type": "tuple[]"
        }
      ],
      "stateMutability": "view",
      "type": "function",
      "constant": true
    }
  ],
  "bytecode": "0x608060405234801561001057600080fd5b5033600360006101000a81548173ffffffffffffffffffffffffffffffffffffffff021916908373ffffffffffffffffffffffffffffffffffffffff160217905550611921806100616000396000f3fe608060405234801561001057600080fd5b506004361061009e5760003560e01c8063a3ec138d11610066578063a3ec138d1461016d578063b384abef1461019d578063dc6bfbb5146101b9578063f851a440146101d7578063f9d5ee75146101f55761009e565b80631b0c27da146100a357806320faae8e146100d35780635c632b38146100ef5780638203373a146101215780639f2524ee1461013d575b600080fd5b6100bd60048036038101906100b89190610fd0565b610225565b6040516100ca9190611468565b60405180910390f35b6100ed60048036038101906100e89190610f51565b610399565b005b61010960048036038101906101049190610fd0565b6105aa565b60405161011893929190611582565b60405180910390f35b61013b60048036038101906101369190610f0c565b61065c565b005b61015760048036038101906101529190610ed0565b6107b6565b604051610164919061148a565b60405180910390f35b61018760048036038101906101829190610ea7565b6107e5565b604051610194919061148a565b60405180910390f35b6101b760048036038101906101b29190610ff9565b610805565b005b6101c1610a75565b6040516101ce9190611567565b60405180910390f35b6101df610a7b565b6040516101ec919061144d565b60405180910390f35b61020f600480360381019061020a9190610fd0565b610aa1565b60405161021c9190611545565b60405180910390f35b60606001600083815260200190815260200160002060030154421015610280576040517f08c379a000000000000000000000000000000000000000000000000000000000815260040161027790611525565b60405180910390fd5b60016000838152602001908152602001600020600201805480602002602001604051908101604052809291908181526020016000905b8282101561038e5783829060005260206000209060030201604051806060016040529081600082015481526020016001820180546102f3906117a4565b80601f016020809104026020016040519081016040528092919081815260200182805461031f906117a4565b801561036c5780601f106103415761010080835404028352916020019161036c565b820191906000526020600020905b81548152906001019060200180831161034f57829003601f168201915b50505050508152602001600282015481525050815260200190600101906102b6565b505050509050919050565b600360009054906101000a900473ffffffffffffffffffffffffffffffffffffffff1673ffffffffffffffffffffffffffffffffffffffff163373ffffffffffffffffffffffffffffffffffffffff1614610429576040517f08c379a0000000000000000000000000000000000000000000000000000000008152600401610420906114e5565b60405180910390fd5b60025460016000600254815260200190815260200160002060000181905550826001600060025481526020019081526020016000206001019080519060200190610474929190610c79565b50804261048191906116c4565b6001600060025481526020019081526020016000206003018190555060005b825181101561058c57600160006002548152602001908152602001600020600201604051806060016040528083815260200185848151811061050b577f4e487b7100000000000000000000000000000000000000000000000000000000600052603260045260246000fd5b602002602001015181526020016000815250908060018154018082558091505060019003906000526020600020906003020160009091909190915060008201518160000155602082015181600101908051906020019061056c929190610c79565b506040820151816002015550508080610584906117d6565b9150506104a0565b50600260008154809291906105a0906117d6565b9190505550505050565b60016020528060005260406000206000915090508060000154908060010180546105d3906117a4565b80601f01602080910402602001604051908101604052809291908181526020018280546105ff906117a4565b801561064c5780601f106106215761010080835404028352916020019161064c565b820191906000526020600020905b81548152906001019060200180831161062f57829003601f168201915b5050505050908060030154905083565b600360009054906101000a900473ffffffffffffffffffffffffffffffffffffffff1673ffffffffffffffffffffffffffffffffffffffff163373ffffffffffffffffffffffffffffffffffffffff16146106ec576040517f08c379a00000000000000000000000000000000000000000000000000000000081526004016106e3906114e5565b60405180910390fd5b60005b828290508110156107b1576001600080858585818110610738577f4e487b7100000000000000000000000000000000000000000000000000000000600052603260045260246000fd5b905060200201602081019061074d9190610ea7565b73ffffffffffffffffffffffffffffffffffffffff1673ffffffffffffffffffffffffffffffffffffffff16815260200190815260200160002060006101000a81548160ff02191690831515021790555080806107a9906117d6565b9150506106ef565b505050565b60046020528160005260406000206020528060005260406000206000915091509054906101000a900460ff1681565b60006020528060005260406000206000915054906101000a900460ff1681565b600115156000803373ffffffffffffffffffffffffffffffffffffffff1673ffffffffffffffffffffffffffffffffffffffff16815260200190815260200160002060009054906101000a900460ff16151514610897576040517f08c379a000000000000000000000000000000000000000000000000000000000815260040161088e90611505565b60405180910390fd5b60001515600460003373ffffffffffffffffffffffffffffffffffffffff1673ffffffffffffffffffffffffffffffffffffffff168152602001908152602001600020600084815260200190815260200160002060009054906101000a900460ff1615151461093b576040517f08c379a0000000000000000000000000000000000000000000000000000000008152600401610932906114a5565b60405180910390fd5b60016000838152602001908152602001600020600301544210610993576040517f08c379a000000000000000000000000000000000000000000000000000000000815260040161098a906114c5565b60405180910390fd5b6001600460003373ffffffffffffffffffffffffffffffffffffffff1673ffffffffffffffffffffffffffffffffffffffff168152602001908152602001600020600084815260200190815260200160002060006101000a81548160ff021916908315150217905550600160008381526020019081526020016000206002018181548110610a4a577f4e487b7100000000000000000000000000000000000000000000000000000000600052603260045260246000fd5b90600052602060002090600302016002016000815480929190610a6c906117d6565b91905055505050565b60025481565b600360009054906101000a900473ffffffffffffffffffffffffffffffffffffffff1681565b610aa9610cff565b6001600083815260200190815260200160002060405180608001604052908160008201548152602001600182018054610ae1906117a4565b80601f0160208091040260200160405190810160405280929190818152602001828054610b0d906117a4565b8015610b5a5780601f10610b2f57610100808354040283529160200191610b5a565b820191906000526020600020905b815481529060010190602001808311610b3d57829003601f168201915b5050505050815260200160028201805480602002602001604051908101604052809291908181526020016000905b82821015610c60578382906000526020600020906003020160405180606001604052908160008201548152602001600182018054610bc5906117a4565b80601f0160208091040260200160405190810160405280929190818152602001828054610bf1906117a4565b8015610c3e5780601f10610c1357610100808354040283529160200191610c3e565b820191906000526020600020905b815481529060010190602001808311610c2157829003601f168201915b5050505050815260200160028201548152505081526020019060010190610b88565b5050505081526020016003820154815250509050919050565b828054610c85906117a4565b90600052602060002090601f016020900481019282610ca75760008555610cee565b82601f10610cc057805160ff1916838001178555610cee565b82800160010185558215610cee579182015b82811115610ced578251825591602001919060010190610cd2565b5b509050610cfb9190610d27565b5090565b6040518060800160405280600081526020016060815260200160608152602001600081525090565b5b80821115610d40576000816000905550600101610d28565b5090565b6000610d57610d52846115f1565b6115c0565b9050808382526020820190508260005b85811015610d975781358501610d7d8882610e68565b845260208401935060208301925050600181019050610d67565b5050509392505050565b6000610db4610daf8461161d565b6115c0565b905082815260208101848484011115610dcc57600080fd5b610dd7848285611762565b509392505050565b600081359050610dee816118bd565b92915050565b60008083601f840112610e0657600080fd5b8235905067ffffffffffffffff811115610e1f57600080fd5b602083019150836020820283011115610e3757600080fd5b9250929050565b600082601f830112610e4f57600080fd5b8135610e5f848260208601610d44565b91505092915050565b600082601f830112610e7957600080fd5b8135610e89848260208601610da1565b91505092915050565b600081359050610ea1816118d4565b92915050565b600060208284031215610eb957600080fd5b6000610ec784828501610ddf565b91505092915050565b60008060408385031215610ee357600080fd5b6000610ef185828601610ddf565b9250506020610f0285828601610e92565b9150509250929050565b60008060208385031215610f1f57600080fd5b600083013567ffffffffffffffff811115610f3957600080fd5b610f4585828601610df4565b92509250509250929050565b600080600060608486031215610f6657600080fd5b600084013567ffffffffffffffff811115610f8057600080fd5b610f8c86828701610e68565b935050602084013567ffffffffffffffff811115610fa957600080fd5b610fb586828701610e3e565b9250506040610fc686828701610e92565b9150509250925092565b600060208284031215610fe257600080fd5b6000610ff084828501610e92565b91505092915050565b6000806040838503121561100c57600080fd5b600061101a85828601610e92565b925050602061102b85828601610e92565b9150509250929050565b600061104183836113df565b905092915050565b6110528161171a565b82525050565b60006110638261165d565b61106d8185611680565b93508360208202850161107f8561164d565b8060005b858110156110bb578484038952815161109c8582611035565b94506110a783611673565b925060208a01995050600181019050611083565b50829750879550505050505092915050565b60006110d88261165d565b6110e28185611691565b9350836020820285016110f48561164d565b8060005b8581101561113057848403895281516111118582611035565b945061111c83611673565b925060208a019950506001810190506110f8565b50829750879550505050505092915050565b61114b8161172c565b82525050565b600061115c82611668565b61116681856116a2565b9350611176818560208601611771565b61117f816118ac565b840191505092915050565b600061119582611668565b61119f81856116b3565b93506111af818560208601611771565b6111b8816118ac565b840191505092915050565b60006111d06025836116b3565b91507f766f7465722063616e206f6e6c7920766f7465206f6e636520666f722061206260008301527f616c6c6f740000000000000000000000000000000000000000000000000000006020830152604082019050919050565b60006112366023836116b3565b91507f63616e206f6e6c7920766f746520756e74696c2062616c6c6f7420656e64206460008301527f61746500000000000000000000000000000000000000000000000000000000006020830152604082019050919050565b600061129c600a836116b3565b91507f6f6e6c792061646d696e000000000000000000000000000000000000000000006000830152602082019050919050565b60006112dc6014836116b3565b91507f6f6e6c7920766f746572732063616e20766f74650000000000000000000000006000830152602082019050919050565b600061131c602e836116b3565b91507f63616e6e6f7420736565207468652062616c6c6f7420726573756c742062656660008301527f6f72652062616c6c6f7420656e640000000000000000000000000000000000006020830152604082019050919050565b600060808301600083015161138d600086018261142f565b50602083015184820360208601526113a58282611151565b915050604083015184820360408601526113bf8282611058565b91505060608301516113d4606086018261142f565b508091505092915050565b60006060830160008301516113f7600086018261142f565b506020830151848203602086015261140f8282611151565b9150506040830151611424604086018261142f565b508091505092915050565b61143881611758565b82525050565b61144781611758565b82525050565b60006020820190506114626000830184611049565b92915050565b6000602082019050818103600083015261148281846110cd565b905092915050565b600060208201905061149f6000830184611142565b92915050565b600060208201905081810360008301526114be816111c3565b9050919050565b600060208201905081810360008301526114de81611229565b9050919050565b600060208201905081810360008301526114fe8161128f565b9050919050565b6000602082019050818103600083015261151e816112cf565b9050919050565b6000602082019050818103600083015261153e8161130f565b9050919050565b6000602082019050818103600083015261155f8184611375565b905092915050565b600060208201905061157c600083018461143e565b92915050565b6000606082019050611597600083018661143e565b81810360208301526115a9818561118a565b90506115b8604083018461143e565b949350505050565b6000604051905081810181811067ffffffffffffffff821117156115e7576115e661187d565b5b8060405250919050565b600067ffffffffffffffff82111561160c5761160b61187d565b5b602082029050602081019050919050565b600067ffffffffffffffff8211156116385761163761187d565b5b601f19601f8301169050602081019050919050565b6000819050602082019050919050565b600081519050919050565b600081519050919050565b6000602082019050919050565b600082825260208201905092915050565b600082825260208201905092915050565b600082825260208201905092915050565b600082825260208201905092915050565b60006116cf82611758565b91506116da83611758565b9250827fffffffffffffffffffffffffffffffffffffffffffffffffffffffffffffffff0382111561170f5761170e61181f565b5b828201905092915050565b600061172582611738565b9050919050565b60008115159050919050565b600073ffffffffffffffffffffffffffffffffffffffff82169050919050565b6000819050919050565b82818337600083830152505050565b60005b8381101561178f578082015181840152602081019050611774565b8381111561179e576000848401525b50505050565b600060028204905060018216806117bc57607f821691505b602082108114156117d0576117cf61184e565b5b50919050565b60006117e182611758565b91507fffffffffffffffffffffffffffffffffffffffffffffffffffffffffffffffff8214156118145761181361181f565b5b600182019050919050565b7f4e487b7100000000000000000000000000000000000000000000000000000000600052601160045260246000fd5b7f4e487b7100000000000000000000000000000000000000000000000000000000600052602260045260246000fd5b7f4e487b7100000000000000000000000000000000000000000000000000000000600052604160045260246000fd5b6000601f19601f8301169050919050565b6118c68161171a565b81146118d157600080fd5b50565b6118dd81611758565b81146118e857600080fd5b5056fea264697066735822122085a31c091f0db9be4a4bd6270068baafd24effa8a844f09a1e715dab5298d9b664736f6c63430008000033",
  "immutableReferences": {},
  "source": "pragma solidity ^0.8.0;\npragma experimental ABIEncoderV2;\n\ncontract Voting {\n  mapping(address => bool) public voters;\n  struct Choice {\n    uint id;\n    string name;\n    uint votes;\n  }\n  struct Ballot {\n    uint id;\n    string name;\n    Choice[] choices;\n    uint end;\n  }\n  mapping(uint => Ballot) public ballots;\n  uint public nextBallotId;\n  address public admin;\n  mapping(address => mapping(uint => bool)) public votes;\n  \n  constructor() public {\n    admin = msg.sender;\n  }\n\n  function getBallot(uint id) external view returns(Ballot memory) {\n    return ballots[id];\n  }\n  \n  function addVoters(address[] calldata _voters) external onlyAdmin() {\n    for(uint i = 0; i < _voters.length; i++) {\n        voters[_voters[i]] = true;\n    }\n  }\n\n   function createBallot(\n    string memory name,\n    string[] memory _choices,\n    uint offset\n    ) public onlyAdmin() {\n      //create a new Ballot struct and insert it in a mapping ballots\n      ballots[nextBallotId].id = nextBallotId;\n      ballots[nextBallotId].name = name;\n      //now =current time e.g 1pm, offset =3600 (1hr) =timestamp for 2.00pm\n      ballots[nextBallotId].end = block.timestamp + offset;\n      //we neet to loop thru Choices array and populate the choices array in the function (choices field of Ballot Struct)\n      for(uint i = 0; i < _choices.length ; i++) {\n        ballots[nextBallotId].choices.push(Choice(i, _choices[i], 0));\n      }\n      nextBallotId++;\n  }\n  function vote(uint ballotId, uint choiceId) external {\n      //check to make sure that a person sending trx is voter \n    require(voters[msg.sender] == true, 'only voters can vote');\n     //voter has not voted earlie\n    require(votes[msg.sender][ballotId] == false, 'voter can only vote once for a ballot');\n      //make sure that ballot han not already ended \n    require(block.timestamp < ballots[ballotId].end, 'can only vote until ballot end date');\n    votes[msg.sender][ballotId] = true;\n    ballots[ballotId].choices[choiceId].votes++;\n  }\n\n  //If `pragma experimental ABIEncoderV2`\n  function results(uint ballotId) \n    view \n    external \n    returns(Choice[] memory) {\n    require(block.timestamp >= ballots[ballotId].end, 'cannot see the ballot result before ballot end');\n    return ballots[ballotId].choices;\n  }\n\n  //If no `pragma experimental ABIEncoderV2`\n  //function results(uint ballotId) \n  //  view \n  //  external \n  //  returns(uint[] memory, string[] memory, uint[]memory) {\n  //  require(now >= ballots[ballotId].end, 'can only see result after ballot end');\n  //  Choice[] storage choices = ballots[ballotId].choices;\n  //  uint[] memory ids = new uint[](choices.length);\n  //  string[] memory names = new string[](choices.length);\n  //  uint[] memory votes = new uint[](choices.length);\n  //  for(uint i = 0; i < choices.length; i++) {\n  //    ids[i] = choices[i].id;\n  //    names[i] = choices[i].name;\n  //    votes[i] = choices[i].votes;\n  //  }\n  //  return(ids, names, votes);\n  //}\n\n  modifier onlyAdmin() {\n    require(msg.sender == admin, 'only admin');\n    _;\n  }\n}\n",
  "sourcePath": "C:\\Users\\admin\\Desktop\\Dapp30\\Voting\\contracts\\Voting.sol",
  "compiler": {
    "name": "solc",
    "version": "0.8.0+commit.c7dfd78e.Emscripten.clang"
  },
  "schemaVersion": "3.4.11",
  "updatedAt": "2022-12-08T10:49:40.377Z",
  "networkType": "ethereum",
  "devdoc": {
    "kind": "dev",
    "methods": {},
    "version": 1
  },
  "userdoc": {
    "kind": "user",
    "methods": {},
    "version": 1
  }
}